{
  "transactions": [
    {
      "hash": "0xc2b4c4c2f074562b4765a373267dc90fdbfaff9f6a534721adec67c7bc5f9a74",
      "transactionType": "CALL",
      "contractName": null,
      "contractAddress": "0x70fD02049333337A534a9383149C9a99DDF65495",
      "function": "proposeProposalForCurrentNetwork(uint256,address[],uint256[],bytes[],uint256[],uint8)",
      "arguments": [
        "1720516312",
        "[0xA30B2932CD8b8A89E34551Cdfa13810af38dA576]",
        "[0]",
        "[0x3659cfe6000000000000000000000000e7ba9de0fc9778610a3e0608618d26e018ab83ff]",
        "[1000000]",
        "0"
      ],
      "transaction": {
        "type": "0x00",
        "from": "0xe880802580a1fbdef67ace39d1b21c5b2c74f059",
        "to": "0x70fd02049333337a534a9383149c9a99ddf65495",
        "gas": "0x6ecd8",
        "value": "0x0",
        "data": "0x663ac01100000000000000000000000000000000000000000000000000000000668cfed800000000000000000000000000000000000000000000000000000000000000c00000000000000000000000000000000000000000000000000000000000000100000000000000000000000000000000000000000000000000000000000000014000000000000000000000000000000000000000000000000000000000000001e000000000000000000000000000000000000000000000000000000000000000000000000000000000000000000000000000000000000000000000000000000001000000000000000000000000a30b2932cd8b8a89e34551cdfa13810af38da576000000000000000000000000000000000000000000000000000000000000000100000000000000000000000000000000000000000000000000000000000000000000000000000000000000000000000000000000000000000000000000000001000000000000000000000000000000000000000000000000000000000000002000000000000000000000000000000000000000000000000000000000000000243659cfe6000000000000000000000000e7ba9de0fc9778610a3e0608618d26e018ab83ff00000000000000000000000000000000000000000000000000000000000000000000000000000000000000000000000000000000000000000000000100000000000000000000000000000000000000000000000000000000000f4240",
        "nonce": "0x2e"
      },
      "additionalContracts": [],
      "isFixedGasLimit": false
    }
  ],
  "receipts": [
    {
      "transactionHash": "0xc2b4c4c2f074562b4765a373267dc90fdbfaff9f6a534721adec67c7bc5f9a74",
      "transactionIndex": "0x0",
      "blockHash": "0x288f4af44cd7505803a622be00f0ab9db28d5e3845e7573151f9b5ca64354840",
      "blockNumber": "0x225b925",
      "from": "0xe880802580a1fbdeF67ACe39D1B21c5b2C74f059",
      "to": "0x70fD02049333337A534a9383149C9a99DDF65495",
      "cumulativeGasUsed": "0x34248",
      "gasUsed": "0x34248",
      "contractAddress": null,
      "logs": [
        {
          "address": "0x70fD02049333337A534a9383149C9a99DDF65495",
          "topics": [
            "0xa57d40f1496988cf60ab7c9d5ba4ff83647f67d3898d441a3aaf21b651678fd9",
            "0x00000000000000000000000000000000000000000000000000000000000007e4",
            "0x0000000000000000000000000000000000000000000000000000000000000004",
            "0x4f912b9bdf5908fe189c221cd90c33b28105eefea4c846cc71f3b5090654de56"
          ],
          "data": "0x0000000000000000000000000000000000000000000000000000000000000040000000000000000000000000e880802580a1fbdef67ace39d1b21c5b2c74f059000000000000000000000000000000000000000000000000000000000000000400000000000000000000000000000000000000000000000000000000000007e400000000000000000000000000000000000000000000000000000000668cfed800000000000000000000000000000000000000000000000000000000000000e00000000000000000000000000000000000000000000000000000000000000120000000000000000000000000000000000000000000000000000000000000016000000000000000000000000000000000000000000000000000000000000002000000000000000000000000000000000000000000000000000000000000000001000000000000000000000000a30b2932cd8b8a89e34551cdfa13810af38da576000000000000000000000000000000000000000000000000000000000000000100000000000000000000000000000000000000000000000000000000000000000000000000000000000000000000000000000000000000000000000000000001000000000000000000000000000000000000000000000000000000000000002000000000000000000000000000000000000000000000000000000000000000243659cfe6000000000000000000000000e7ba9de0fc9778610a3e0608618d26e018ab83ff00000000000000000000000000000000000000000000000000000000000000000000000000000000000000000000000000000000000000000000000100000000000000000000000000000000000000000000000000000000000f4240",
          "blockHash": "0x288f4af44cd7505803a622be00f0ab9db28d5e3845e7573151f9b5ca64354840",
          "blockNumber": "0x225b925",
          "transactionHash": "0xc2b4c4c2f074562b4765a373267dc90fdbfaff9f6a534721adec67c7bc5f9a74",
          "transactionIndex": "0x0",
          "logIndex": "0x0",
          "removed": false
        },
        {
          "address": "0x70fD02049333337A534a9383149C9a99DDF65495",
          "topics": [
            "0x1203f9e81c814a35f5f4cc24087b2a24c6fb7986a9f1406b68a9484882c93a23",
            "0x4f912b9bdf5908fe189c221cd90c33b28105eefea4c846cc71f3b5090654de56",
            "0x000000000000000000000000e880802580a1fbdef67ace39d1b21c5b2c74f059"
          ],
          "data": "0x00000000000000000000000000000000000000000000000000000000000000000000000000000000000000000000000000000000000000000000000000000064",
          "blockHash": "0x288f4af44cd7505803a622be00f0ab9db28d5e3845e7573151f9b5ca64354840",
          "blockNumber": "0x225b925",
          "transactionHash": "0xc2b4c4c2f074562b4765a373267dc90fdbfaff9f6a534721adec67c7bc5f9a74",
          "transactionIndex": "0x0",
          "logIndex": "0x1",
          "removed": false
        }
      ],
      "status": "0x1",
      "logsBloom": "0x00000000000000010000000000000000000080000000000000000000000000000000000000000000000800000000000020000000000000200000000000000000000010000004000000000000000000000000400000000000000200000000000008000000000000000000000000000000000000000000000000000000000000000000000000000000000000000000000000000000000000000000000000000000000000000000002000000000000000000400000400000000002000000002000000000000000000000000000800000008000000008000000000000000000000100000000000004000000000000000000000000000000000000000000000080000",
      "type": "0x0",
      "effectiveGasPrice": "0x4a817c800"
    }
  ],
  "libraries": [],
  "pending": [],
  "returns": {},
  "timestamp": 1719913610,
  "chain": 2020,
  "multi": false,
  "commit": "1d5a891b"
}