{
  "transactions": [
    {
      "hash": "0xc2b4c4c2f074562b4765a373267dc90fdbfaff9f6a534721adec67c7bc5f9a74",
      "transactionType": "CALL",
      "contractName": null,
      "contractAddress": "0x70fD02049333337A534a9383149C9a99DDF65495",
      "function": "proposeProposalForCurrentNetwork(uint256,address[],uint256[],bytes[],uint256[],uint8)",
      "arguments": [
        "1720516312",
        "[0xA30B2932CD8b8A89E34551Cdfa13810af38dA576]",
        "[0]",
        "[0x3659cfe6000000000000000000000000e7ba9de0fc9778610a3e0608618d26e018ab83ff]",
        "[1000000]",
        "0"
      ],
      "transaction": {
        "type": "0x00",
        "from": "0xe880802580a1fbdef67ace39d1b21c5b2c74f059",
        "to": "0x70fd02049333337a534a9383149c9a99ddf65495",
        "gas": "0x6ecd8",
        "value": "0x0",
        "data": "0x663ac01100000000000000000000000000000000000000000000000000000000668cfed800000000000000000000000000000000000000000000000000000000000000c00000000000000000000000000000000000000000000000000000000000000100000000000000000000000000000000000000000000000000000000000000014000000000000000000000000000000000000000000000000000000000000001e000000000000000000000000000000000000000000000000000000000000000000000000000000000000000000000000000000000000000000000000000000001000000000000000000000000a30b2932cd8b8a89e34551cdfa13810af38da576000000000000000000000000000000000000000000000000000000000000000100000000000000000000000000000000000000000000000000000000000000000000000000000000000000000000000000000000000000000000000000000001000000000000000000000000000000000000000000000000000000000000002000000000000000000000000000000000000000000000000000000000000000243659cfe6000000000000000000000000e7ba9de0fc9778610a3e0608618d26e018ab83ff00000000000000000000000000000000000000000000000000000000000000000000000000000000000000000000000000000000000000000000000100000000000000000000000000000000000000000000000000000000000f4240",
        "nonce": "0x2e"
      },
      "additionalContracts": [],
      "isFixedGasLimit": false
    }
  ],
  "receipts": [],
  "libraries": [],
  "pending": [
    "0xc2b4c4c2f074562b4765a373267dc90fdbfaff9f6a534721adec67c7bc5f9a74"
  ],
  "returns": {},
  "timestamp": 1719913604,
  "chain": 2020,
  "multi": false,
  "commit": "1d5a891b"
}