{
  "transactions": [
    {
      "hash": "0x1d39e7cdd06f693147cdc928e9488fef41184b6efdd50b026bbd3b70b69f9f46",
      "transactionType": "CALL",
      "contractName": null,
      "contractAddress": "0x53Ea388CB72081A3a397114a43741e7987815896",
      "function": "castProposalVoteForCurrentNetwork((uint256,uint256,uint256,address[],uint256[],bytes[],uint256[]),uint8)",
      "arguments": [
        "(35, 2021, 1707210811, [0x41aCDFe786171824a037f2Cd6224c5916A58969a, 0x4016C80D97DDCbe4286140446759a3f0c1d20584, 0x3b67c8D22a91572a6AB18acC9F70787Af04A4043, 0x1aD54D61F47acBcBA99fb6540A1694EB2F47AB95, 0x7507dc433a98E1fE105d69f19f3B40E4315A4F32, 0x54B3AC74a90E64E8dDE60671b6fE8F8DDf18eC9d, 0xF7837778b6E180Df6696C8Fa986d62f8b6186752, 0x9C245671791834daf3885533D24dce516B763B28, 0x023930A8ad88dc5AB3a3b8E8cb849BbD6a5c8441], [0, 0, 0, 0, 0, 0, 0, 0, 0], [0x3659cfe6000000000000000000000000591a38ba0f6c4110057b0a4842b87e9796b3ed94, 0x3659cfe6000000000000000000000000aad5541eb4e5de1f353bcc8eabd124fc42107507, 0x3659cfe6000000000000000000000000c92090c0de6eafc6981787fe2d93000acfb31e61, 0x3659cfe6000000000000000000000000579f7b862f8ad848968e0cd673ff7bf91b2aafe8, 0x3659cfe600000000000000000000000043865cbfd22a55c4f95197aed47805d5bd498e88, 0x3659cfe6000000000000000000000000dab228a4121f19ed1a4bbb7c21b40febd3536330, 0x3659cfe600000000000000000000000035ce4eef93809b997addaee8e0d979d966dbd02d, 0x4f1ef286000000000000000000000000301d5ebe4c1049a007720d2bfb4099e9dcbc061e000000000000000000000000000000000000000000000000000000000000004000000000000000000000000000000000000000000000000000000000000000443a3ec5b0000000000000000000000000968d0cd7343f711216817e617d3f92a23dc91c07000000000000000000000000f72beae310d08e184ddb0990ecc6abe6340cf6ef00000000000000000000000000000000000000000000000000000000, 0x3659cfe60000000000000000000000006bfc4376552d503b8bd83aabca9b8ce45ce540e3], [1000000, 1000000, 1000000, 1000000, 1000000, 1000000, 1000000, 1000000, 1000000])",
        "0"
      ],
      "transaction": {
        "type": "0x00",
        "from": "0x52ec2e6bbce45afff8955da6410bb13812f4289f",
        "to": "0x53ea388cb72081a3a397114a43741e7987815896",
        "gas": "0x1312d00",
        "value": "0x0",
        "data": "0xa8a0e32c00000000000000000000000000000000000000000000000000000000000000400000000000000000000000000000000000000000000000000000000000000000000000000000000000000000000000000000000000000000000000000000002300000000000000000000000000000000000000000000000000000000000007e50000000000000000000000000000000000000000000000000000000065c1f83b00000000000000000000000000000000000000000000000000000000000000e00000000000000000000000000000000000000000000000000000000000000220000000000000000000000000000000000000000000000000000000000000036000000000000000000000000000000000000000000000000000000000000008a0000000000000000000000000000000000000000000000000000000000000000900000000000000000000000041acdfe786171824a037f2cd6224c5916a58969a0000000000000000000000004016c80d97ddcbe4286140446759a3f0c1d205840000000000000000000000003b67c8d22a91572a6ab18acc9f70787af04a40430000000000000000000000001ad54d61f47acbcba99fb6540a1694eb2f47ab950000000000000000000000007507dc433a98e1fe105d69f19f3b40e4315a4f3200000000000000000000000054b3ac74a90e64e8dde60671b6fe8f8ddf18ec9d000000000000000000000000f7837778b6e180df6696c8fa986d62f8b61867520000000000000000000000009c245671791834daf3885533d24dce516b763b28000000000000000000000000023930a8ad88dc5ab3a3b8e8cb849bbd6a5c8441000000000000000000000000000000000000000000000000000000000000000900000000000000000000000000000000000000000000000000000000000000000000000000000000000000000000000000000000000000000000000000000000000000000000000000000000000000000000000000000000000000000000000000000000000000000000000000000000000000000000000000000000000000000000000000000000000000000000000000000000000000000000000000000000000000000000000000000000000000000000000000000000000000000000000000000000000000000000000000000000000000000000000000000000000000000000000000000000000000000000000000000000000000000000000000000000000000000000000000000000000000000000000000000000000000000000000000000000000000000000000000000000000000000000000000000000000000090000000000000000000000000000000000000000000000000000000000000120000000000000000000000000000000000000000000000000000000000000018000000000000000000000000000000000000000000000000000000000000001e0000000000000000000000000000000000000000000000000000000000000024000000000000000000000000000000000000000000000000000000000000002a00000000000000000000000000000000000000000000000000000000000000300000000000000000000000000000000000000000000000000000000000000036000000000000000000000000000000000000000000000000000000000000003c000000000000000000000000000000000000000000000000000000000000004c000000000000000000000000000000000000000000000000000000000000000243659cfe6000000000000000000000000591a38ba0f6c4110057b0a4842b87e9796b3ed940000000000000000000000000000000000000000000000000000000000000000000000000000000000000000000000000000000000000000000000243659cfe6000000000000000000000000aad5541eb4e5de1f353bcc8eabd124fc421075070000000000000000000000000000000000000000000000000000000000000000000000000000000000000000000000000000000000000000000000243659cfe6000000000000000000000000c92090c0de6eafc6981787fe2d93000acfb31e610000000000000000000000000000000000000000000000000000000000000000000000000000000000000000000000000000000000000000000000243659cfe6000000000000000000000000579f7b862f8ad848968e0cd673ff7bf91b2aafe80000000000000000000000000000000000000000000000000000000000000000000000000000000000000000000000000000000000000000000000243659cfe600000000000000000000000043865cbfd22a55c4f95197aed47805d5bd498e880000000000000000000000000000000000000000000000000000000000000000000000000000000000000000000000000000000000000000000000243659cfe6000000000000000000000000dab228a4121f19ed1a4bbb7c21b40febd35363300000000000000000000000000000000000000000000000000000000000000000000000000000000000000000000000000000000000000000000000243659cfe600000000000000000000000035ce4eef93809b997addaee8e0d979d966dbd02d0000000000000000000000000000000000000000000000000000000000000000000000000000000000000000000000000000000000000000000000c44f1ef286000000000000000000000000301d5ebe4c1049a007720d2bfb4099e9dcbc061e000000000000000000000000000000000000000000000000000000000000004000000000000000000000000000000000000000000000000000000000000000443a3ec5b0000000000000000000000000968d0cd7343f711216817e617d3f92a23dc91c07000000000000000000000000f72beae310d08e184ddb0990ecc6abe6340cf6ef000000000000000000000000000000000000000000000000000000000000000000000000000000000000000000000000000000000000000000000000000000000000000000000000000000000000000000000000000000243659cfe60000000000000000000000006bfc4376552d503b8bd83aabca9b8ce45ce540e300000000000000000000000000000000000000000000000000000000000000000000000000000000000000000000000000000000000000000000000900000000000000000000000000000000000000000000000000000000000f424000000000000000000000000000000000000000000000000000000000000f424000000000000000000000000000000000000000000000000000000000000f424000000000000000000000000000000000000000000000000000000000000f424000000000000000000000000000000000000000000000000000000000000f424000000000000000000000000000000000000000000000000000000000000f424000000000000000000000000000000000000000000000000000000000000f424000000000000000000000000000000000000000000000000000000000000f424000000000000000000000000000000000000000000000000000000000000f4240",
        "nonce": "0x37"
      },
      "additionalContracts": [],
      "isFixedGasLimit": true
    }
  ],
  "receipts": [
    {
      "transactionHash": "0x1d39e7cdd06f693147cdc928e9488fef41184b6efdd50b026bbd3b70b69f9f46",
      "transactionIndex": "0x0",
      "blockHash": "0x2b4ce8bea93cd5798ccf578a35846dbe721db438feb1f6ca5909a0541979c293",
      "blockNumber": "0x16fc129",
      "from": "0x52ec2e6BBcE45AfFF8955Da6410bb13812F4289F",
      "to": "0x53Ea388CB72081A3a397114a43741e7987815896",
      "cumulativeGasUsed": "0x73aff",
      "gasUsed": "0x73aff",
      "contractAddress": null,
      "logs": [
        {
          "address": "0x53Ea388CB72081A3a397114a43741e7987815896",
          "topics": [
            "0x1203f9e81c814a35f5f4cc24087b2a24c6fb7986a9f1406b68a9484882c93a23",
            "0xd92929637dba332d4bad4e2a6f931bf59a07ea216224451f5a98eb1c51039f29",
            "0x00000000000000000000000052ec2e6bbce45afff8955da6410bb13812f4289f"
          ],
          "data": "0x00000000000000000000000000000000000000000000000000000000000000000000000000000000000000000000000000000000000000000000000000000064",
          "blockHash": "0x2b4ce8bea93cd5798ccf578a35846dbe721db438feb1f6ca5909a0541979c293",
          "blockNumber": "0x16fc129",
          "transactionHash": "0x1d39e7cdd06f693147cdc928e9488fef41184b6efdd50b026bbd3b70b69f9f46",
          "transactionIndex": "0x0",
          "logIndex": "0x0",
          "removed": false
        },
        {
          "address": "0x53Ea388CB72081A3a397114a43741e7987815896",
          "topics": [
            "0x5c819725ea53655a3b898f3df59b66489761935454e9212ca1e5ebd759953d0b",
            "0xd92929637dba332d4bad4e2a6f931bf59a07ea216224451f5a98eb1c51039f29"
          ],
          "data": "0x",
          "blockHash": "0x2b4ce8bea93cd5798ccf578a35846dbe721db438feb1f6ca5909a0541979c293",
          "blockNumber": "0x16fc129",
          "transactionHash": "0x1d39e7cdd06f693147cdc928e9488fef41184b6efdd50b026bbd3b70b69f9f46",
          "transactionIndex": "0x0",
          "logIndex": "0x1",
          "removed": false
        },
        {
          "address": "0x41aCDFe786171824a037f2Cd6224c5916A58969a",
          "topics": [
            "0xbc7cd75a20ee27fd9adebab32041f755214dbc6bffa90cc0225b39da2e5c2d3b",
            "0x000000000000000000000000591a38ba0f6c4110057b0a4842b87e9796b3ed94"
          ],
          "data": "0x",
          "blockHash": "0x2b4ce8bea93cd5798ccf578a35846dbe721db438feb1f6ca5909a0541979c293",
          "blockNumber": "0x16fc129",
          "transactionHash": "0x1d39e7cdd06f693147cdc928e9488fef41184b6efdd50b026bbd3b70b69f9f46",
          "transactionIndex": "0x0",
          "logIndex": "0x2",
          "removed": false
        },
        {
          "address": "0x4016C80D97DDCbe4286140446759a3f0c1d20584",
          "topics": [
            "0xbc7cd75a20ee27fd9adebab32041f755214dbc6bffa90cc0225b39da2e5c2d3b",
            "0x000000000000000000000000aad5541eb4e5de1f353bcc8eabd124fc42107507"
          ],
          "data": "0x",
          "blockHash": "0x2b4ce8bea93cd5798ccf578a35846dbe721db438feb1f6ca5909a0541979c293",
          "blockNumber": "0x16fc129",
          "transactionHash": "0x1d39e7cdd06f693147cdc928e9488fef41184b6efdd50b026bbd3b70b69f9f46",
          "transactionIndex": "0x0",
          "logIndex": "0x3",
          "removed": false
        },
        {
          "address": "0x3b67c8D22a91572a6AB18acC9F70787Af04A4043",
          "topics": [
            "0xbc7cd75a20ee27fd9adebab32041f755214dbc6bffa90cc0225b39da2e5c2d3b",
            "0x000000000000000000000000c92090c0de6eafc6981787fe2d93000acfb31e61"
          ],
          "data": "0x",
          "blockHash": "0x2b4ce8bea93cd5798ccf578a35846dbe721db438feb1f6ca5909a0541979c293",
          "blockNumber": "0x16fc129",
          "transactionHash": "0x1d39e7cdd06f693147cdc928e9488fef41184b6efdd50b026bbd3b70b69f9f46",
          "transactionIndex": "0x0",
          "logIndex": "0x4",
          "removed": false
        },
        {
          "address": "0x1aD54D61F47acBcBA99fb6540A1694EB2F47AB95",
          "topics": [
            "0xbc7cd75a20ee27fd9adebab32041f755214dbc6bffa90cc0225b39da2e5c2d3b",
            "0x000000000000000000000000579f7b862f8ad848968e0cd673ff7bf91b2aafe8"
          ],
          "data": "0x",
          "blockHash": "0x2b4ce8bea93cd5798ccf578a35846dbe721db438feb1f6ca5909a0541979c293",
          "blockNumber": "0x16fc129",
          "transactionHash": "0x1d39e7cdd06f693147cdc928e9488fef41184b6efdd50b026bbd3b70b69f9f46",
          "transactionIndex": "0x0",
          "logIndex": "0x5",
          "removed": false
        },
        {
          "address": "0x7507dc433a98E1fE105d69f19f3B40E4315A4F32",
          "topics": [
            "0xbc7cd75a20ee27fd9adebab32041f755214dbc6bffa90cc0225b39da2e5c2d3b",
            "0x00000000000000000000000043865cbfd22a55c4f95197aed47805d5bd498e88"
          ],
          "data": "0x",
          "blockHash": "0x2b4ce8bea93cd5798ccf578a35846dbe721db438feb1f6ca5909a0541979c293",
          "blockNumber": "0x16fc129",
          "transactionHash": "0x1d39e7cdd06f693147cdc928e9488fef41184b6efdd50b026bbd3b70b69f9f46",
          "transactionIndex": "0x0",
          "logIndex": "0x6",
          "removed": false
        },
        {
          "address": "0x54B3AC74a90E64E8dDE60671b6fE8F8DDf18eC9d",
          "topics": [
            "0xbc7cd75a20ee27fd9adebab32041f755214dbc6bffa90cc0225b39da2e5c2d3b",
            "0x000000000000000000000000dab228a4121f19ed1a4bbb7c21b40febd3536330"
          ],
          "data": "0x",
          "blockHash": "0x2b4ce8bea93cd5798ccf578a35846dbe721db438feb1f6ca5909a0541979c293",
          "blockNumber": "0x16fc129",
          "transactionHash": "0x1d39e7cdd06f693147cdc928e9488fef41184b6efdd50b026bbd3b70b69f9f46",
          "transactionIndex": "0x0",
          "logIndex": "0x7",
          "removed": false
        },
        {
          "address": "0xF7837778b6E180Df6696C8Fa986d62f8b6186752",
          "topics": [
            "0xbc7cd75a20ee27fd9adebab32041f755214dbc6bffa90cc0225b39da2e5c2d3b",
            "0x00000000000000000000000035ce4eef93809b997addaee8e0d979d966dbd02d"
          ],
          "data": "0x",
          "blockHash": "0x2b4ce8bea93cd5798ccf578a35846dbe721db438feb1f6ca5909a0541979c293",
          "blockNumber": "0x16fc129",
          "transactionHash": "0x1d39e7cdd06f693147cdc928e9488fef41184b6efdd50b026bbd3b70b69f9f46",
          "transactionIndex": "0x0",
          "logIndex": "0x8",
          "removed": false
        },
        {
          "address": "0x9C245671791834daf3885533D24dce516B763B28",
          "topics": [
            "0xbc7cd75a20ee27fd9adebab32041f755214dbc6bffa90cc0225b39da2e5c2d3b",
            "0x000000000000000000000000301d5ebe4c1049a007720d2bfb4099e9dcbc061e"
          ],
          "data": "0x",
          "blockHash": "0x2b4ce8bea93cd5798ccf578a35846dbe721db438feb1f6ca5909a0541979c293",
          "blockNumber": "0x16fc129",
          "transactionHash": "0x1d39e7cdd06f693147cdc928e9488fef41184b6efdd50b026bbd3b70b69f9f46",
          "transactionIndex": "0x0",
          "logIndex": "0x9",
          "removed": false
        },
        {
          "address": "0x9C245671791834daf3885533D24dce516B763B28",
          "topics": [
            "0x2f8788117e7eff1d82e926ec794901d17c78024a50270940304540a733656f0d",
            "0x0000000000000000000000000000000000000000000000000000000000000000",
            "0x000000000000000000000000968d0cd7343f711216817e617d3f92a23dc91c07",
            "0x00000000000000000000000053ea388cb72081a3a397114a43741e7987815896"
          ],
          "data": "0x",
          "blockHash": "0x2b4ce8bea93cd5798ccf578a35846dbe721db438feb1f6ca5909a0541979c293",
          "blockNumber": "0x16fc129",
          "transactionHash": "0x1d39e7cdd06f693147cdc928e9488fef41184b6efdd50b026bbd3b70b69f9f46",
          "transactionIndex": "0x0",
          "logIndex": "0xa",
          "removed": false
        },
        {
          "address": "0x9C245671791834daf3885533D24dce516B763B28",
          "topics": [
            "0x2f8788117e7eff1d82e926ec794901d17c78024a50270940304540a733656f0d",
            "0x600e5f1c60beb469a3fa6dd3814a4ae211cc6259a6d033bae218a742f2af01d3",
            "0x000000000000000000000000f72beae310d08e184ddb0990ecc6abe6340cf6ef",
            "0x00000000000000000000000053ea388cb72081a3a397114a43741e7987815896"
          ],
          "data": "0x",
          "blockHash": "0x2b4ce8bea93cd5798ccf578a35846dbe721db438feb1f6ca5909a0541979c293",
          "blockNumber": "0x16fc129",
          "transactionHash": "0x1d39e7cdd06f693147cdc928e9488fef41184b6efdd50b026bbd3b70b69f9f46",
          "transactionIndex": "0x0",
          "logIndex": "0xb",
          "removed": false
        },
        {
          "address": "0x9C245671791834daf3885533D24dce516B763B28",
          "topics": [
            "0x7f26b83ff96e1f2b6a682f133852f6798a09c465da95921460cefb3847402498"
          ],
          "data": "0x0000000000000000000000000000000000000000000000000000000000000004",
          "blockHash": "0x2b4ce8bea93cd5798ccf578a35846dbe721db438feb1f6ca5909a0541979c293",
          "blockNumber": "0x16fc129",
          "transactionHash": "0x1d39e7cdd06f693147cdc928e9488fef41184b6efdd50b026bbd3b70b69f9f46",
          "transactionIndex": "0x0",
          "logIndex": "0xc",
          "removed": false
        },
        {
          "address": "0x023930A8ad88dc5AB3a3b8E8cb849BbD6a5c8441",
          "topics": [
            "0xbc7cd75a20ee27fd9adebab32041f755214dbc6bffa90cc0225b39da2e5c2d3b",
            "0x0000000000000000000000006bfc4376552d503b8bd83aabca9b8ce45ce540e3"
          ],
          "data": "0x",
          "blockHash": "0x2b4ce8bea93cd5798ccf578a35846dbe721db438feb1f6ca5909a0541979c293",
          "blockNumber": "0x16fc129",
          "transactionHash": "0x1d39e7cdd06f693147cdc928e9488fef41184b6efdd50b026bbd3b70b69f9f46",
          "transactionIndex": "0x0",
          "logIndex": "0xd",
          "removed": false
        },
        {
          "address": "0x53Ea388CB72081A3a397114a43741e7987815896",
          "topics": [
            "0xe134987599ae266ec90edeff1b26125b287dbb57b10822649432d1bb26537fba",
            "0xd92929637dba332d4bad4e2a6f931bf59a07ea216224451f5a98eb1c51039f29"
          ],
          "data": "0x0000000000000000000000000000000000000000000000000000000000000040000000000000000000000000000000000000000000000000000000000000018000000000000000000000000000000000000000000000000000000000000000090000000000000000000000000000000000000000000000000000000000000001000000000000000000000000000000000000000000000000000000000000000100000000000000000000000000000000000000000000000000000000000000010000000000000000000000000000000000000000000000000000000000000001000000000000000000000000000000000000000000000000000000000000000100000000000000000000000000000000000000000000000000000000000000010000000000000000000000000000000000000000000000000000000000000001000000000000000000000000000000000000000000000000000000000000000100000000000000000000000000000000000000000000000000000000000000010000000000000000000000000000000000000000000000000000000000000009000000000000000000000000000000000000000000000000000000000000012000000000000000000000000000000000000000000000000000000000000001400000000000000000000000000000000000000000000000000000000000000160000000000000000000000000000000000000000000000000000000000000018000000000000000000000000000000000000000000000000000000000000001a000000000000000000000000000000000000000000000000000000000000001c000000000000000000000000000000000000000000000000000000000000001e000000000000000000000000000000000000000000000000000000000000002000000000000000000000000000000000000000000000000000000000000000220000000000000000000000000000000000000000000000000000000000000000000000000000000000000000000000000000000000000000000000000000000000000000000000000000000000000000000000000000000000000000000000000000000000000000000000000000000000000000000000000000000000000000000000000000000000000000000000000000000000000000000000000000000000000000000000000000000000000000000000000000000000000000000000000000000000000000000000000000000000000000000000000000000000000000000000000000000000000000000000000000000000000000000000000000000000000000000000000000000000000000000000000000000000000000000000000",
          "blockHash": "0x2b4ce8bea93cd5798ccf578a35846dbe721db438feb1f6ca5909a0541979c293",
          "blockNumber": "0x16fc129",
          "transactionHash": "0x1d39e7cdd06f693147cdc928e9488fef41184b6efdd50b026bbd3b70b69f9f46",
          "transactionIndex": "0x0",
          "logIndex": "0xe",
          "removed": false
        }
      ],
      "status": "0x1",
      "logsBloom": "0x00800006000020000000000200000000e0000001000000000000000008000000002020002000200000000000200000000000000000000200400000002040000000000000000402000000000000000200000000000008000200200000000030000000000002000000000000000040080000000041100002000085002002000000000400000000010000000000008100020001000000008000000090000000300010000080410002c000000080000400080000000400000012001000000010004000000020000000004000000010840020400000000000800100000000480020010010000000084000000001000020080400102000000000000105000200000000",
      "type": "0x0",
      "effectiveGasPrice": "0x4a817c800"
    }
  ],
  "libraries": [],
  "pending": [],
  "returns": {},
  "timestamp": 1706004597,
  "chain": 2021,
  "multi": false,
  "commit": "1cc0de9"
}