{
  "transactions": [
    {
      "hash": "0xfabfb9213b28096a962aad1b0f5b4123af6dbdde9eb9d432c8bc314218904220",
      "transactionType": "CALL",
      "contractName": null,
      "contractAddress": "0x70fD02049333337A534a9383149C9a99DDF65495",
      "function": "proposeProposalForCurrentNetwork(uint256,address[],uint256[],bytes[],uint256[],uint8)",
      "arguments": [
        "1719995677",
        "[0x617c5d73662282EA7FfD231E020eCa6D2B0D552f, 0xC768423A2AE2B5024cB58F3d6449A8f5DB6D8816, 0xaE4788294759C1ea2d095766Cc902786ba2280dc]",
        "[0, 0, 0]",
        "[0x3659cfe6000000000000000000000000c0d9f3fffe76020f9c62f435672112b0895a4f3b, 0x4f1ef286000000000000000000000000945aa80ed35897d2210c5d85fe204f439374935d000000000000000000000000000000000000000000000000000000000000004000000000000000000000000000000000000000000000000000000000000000446f5a2bc60000000000000000000000000000000000000000000000000000000000004dc4000000000000000000000000000000000000000000000000000000000000213400000000000000000000000000000000000000000000000000000000, 0x4bb5274a000000000000000000000000000000000000000000000000000000000000002000000000000000000000000000000000000000000000000000000000000000243355b0f0000000000000000000000000000000000000000000000000000000000000000700000000000000000000000000000000000000000000000000000000]",
        "[1000000, 1000000, 1000000]",
        "0"
      ],
      "transaction": {
        "type": "0x00",
        "from": "0xe880802580a1fbdef67ace39d1b21c5b2c74f059",
        "to": "0x70fd02049333337a534a9383149c9a99ddf65495",
        "gas": "0x75dc8",
        "value": "0x0",
        "data": "0x663ac0110000000000000000000000000000000000000000000000000000000066850d1d00000000000000000000000000000000000000000000000000000000000000c0000000000000000000000000000000000000000000000000000000000000014000000000000000000000000000000000000000000000000000000000000001c0000000000000000000000000000000000000000000000000000000000000046000000000000000000000000000000000000000000000000000000000000000000000000000000000000000000000000000000000000000000000000000000003000000000000000000000000617c5d73662282ea7ffd231e020eca6d2b0d552f000000000000000000000000c768423a2ae2b5024cb58f3d6449a8f5db6d8816000000000000000000000000ae4788294759c1ea2d095766cc902786ba2280dc00000000000000000000000000000000000000000000000000000000000000030000000000000000000000000000000000000000000000000000000000000000000000000000000000000000000000000000000000000000000000000000000000000000000000000000000000000000000000000000000000000000000000000000000000000000000000000000000000000000000000000000000000000003000000000000000000000000000000000000000000000000000000000000006000000000000000000000000000000000000000000000000000000000000000c000000000000000000000000000000000000000000000000000000000000001c000000000000000000000000000000000000000000000000000000000000000243659cfe6000000000000000000000000c0d9f3fffe76020f9c62f435672112b0895a4f3b0000000000000000000000000000000000000000000000000000000000000000000000000000000000000000000000000000000000000000000000c44f1ef286000000000000000000000000945aa80ed35897d2210c5d85fe204f439374935d000000000000000000000000000000000000000000000000000000000000004000000000000000000000000000000000000000000000000000000000000000446f5a2bc60000000000000000000000000000000000000000000000000000000000004dc40000000000000000000000000000000000000000000000000000000000002134000000000000000000000000000000000000000000000000000000000000000000000000000000000000000000000000000000000000000000000000000000000000000000000000000000000000000000000000000000844bb5274a000000000000000000000000000000000000000000000000000000000000002000000000000000000000000000000000000000000000000000000000000000243355b0f000000000000000000000000000000000000000000000000000000000000000070000000000000000000000000000000000000000000000000000000000000000000000000000000000000000000000000000000000000000000000000000000000000000000000000000000000000000000000000000000300000000000000000000000000000000000000000000000000000000000f424000000000000000000000000000000000000000000000000000000000000f424000000000000000000000000000000000000000000000000000000000000f4240",
        "nonce": "0x2d"
      },
      "additionalContracts": [],
      "isFixedGasLimit": false
    }
  ],
  "receipts": [],
  "libraries": [],
  "pending": [
    "0xfabfb9213b28096a962aad1b0f5b4123af6dbdde9eb9d432c8bc314218904220"
  ],
  "returns": {},
  "timestamp": 1719394395,
  "chain": 2020,
  "multi": false,
  "commit": "a77dd2d5"
}